{
  "_format": "hh-sol-artifact-1",
  "contractName": "KeeperRegistry",
  "sourceName": "contracts/KeeperRegistry.sol",
  "abi": [
    {
      "inputs": [
        {
          "components": [
            {
              "internalType": "uint24",
              "name": "blockCountPerTurn",
              "type": "uint24"
            },
            {
              "internalType": "uint32",
              "name": "checkGasLimit",
              "type": "uint32"
            },
            {
              "internalType": "uint32",
              "name": "maxPerformGas",
              "type": "uint32"
            },
            {
              "internalType": "address",
              "name": "registrar",
              "type": "address"
            }
          ],
          "internalType": "struct Config",
          "name": "config",
          "type": "tuple"
        }
      ],
      "stateMutability": "nonpayable",
      "type": "constructor"
    },
    {
      "inputs": [],
      "name": "ArrayHasNoEntries",
      "type": "error"
    },
    {
      "inputs": [],
      "name": "CannotCancel",
      "type": "error"
    },
    {
      "inputs": [],
      "name": "DuplicateEntry",
      "type": "error"
    },
    {
      "inputs": [],
      "name": "GasLimitCanOnlyIncrease",
      "type": "error"
    },
    {
      "inputs": [],
      "name": "GasLimitOutsideRange",
      "type": "error"
    },
    {
      "inputs": [],
      "name": "IndexOutOfRange",
      "type": "error"
    },
    {
      "inputs": [],
      "name": "InvalidPayee",
      "type": "error"
    },
    {
      "inputs": [],
      "name": "InvalidRecipient",
      "type": "error"
    },
    {
      "inputs": [],
      "name": "KeepersMustTakeTurns",
      "type": "error"
    },
    {
      "inputs": [],
      "name": "MigrationNotPermitted",
      "type": "error"
    },
    {
      "inputs": [],
      "name": "NotAContract",
      "type": "error"
    },
    {
      "inputs": [],
      "name": "OnlyActiveKeepers",
      "type": "error"
    },
    {
      "inputs": [],
      "name": "OnlyCallableByAdmin",
      "type": "error"
    },
    {
      "inputs": [],
      "name": "OnlyCallableByOwnerOrAdmin",
      "type": "error"
    },
    {
      "inputs": [],
      "name": "OnlyCallableByPayee",
      "type": "error"
    },
    {
      "inputs": [],
      "name": "OnlyCallableByProposedPayee",
      "type": "error"
    },
    {
      "inputs": [],
      "name": "OnlySimulatedBackend",
      "type": "error"
    },
    {
      "inputs": [],
      "name": "ParameterLengthError",
      "type": "error"
    },
    {
      "inputs": [
        {
          "internalType": "bytes",
          "name": "reason",
          "type": "bytes"
        }
      ],
      "name": "TargetCheckReverted",
      "type": "error"
    },
    {
      "inputs": [],
      "name": "UpkeepNotActive",
      "type": "error"
    },
    {
      "inputs": [],
      "name": "UpkeepNotNeeded",
      "type": "error"
    },
    {
      "inputs": [],
      "name": "ValueNotChanged",
      "type": "error"
    },
    {
      "anonymous": false,
      "inputs": [
        {
          "components": [
            {
              "internalType": "uint24",
              "name": "blockCountPerTurn",
              "type": "uint24"
            },
            {
              "internalType": "uint32",
              "name": "checkGasLimit",
              "type": "uint32"
            },
            {
              "internalType": "uint32",
              "name": "maxPerformGas",
              "type": "uint32"
            },
            {
              "internalType": "address",
              "name": "registrar",
              "type": "address"
            }
          ],
          "indexed": false,
          "internalType": "struct Config",
          "name": "config",
          "type": "tuple"
        }
      ],
      "name": "ConfigSet",
      "type": "event"
    },
    {
      "anonymous": false,
      "inputs": [
        {
          "indexed": false,
          "internalType": "address[]",
          "name": "keepers",
          "type": "address[]"
        },
        {
          "indexed": false,
          "internalType": "address[]",
          "name": "payees",
          "type": "address[]"
        }
      ],
      "name": "KeepersUpdated",
      "type": "event"
    },
    {
      "anonymous": false,
      "inputs": [
        {
          "indexed": true,
          "internalType": "address",
          "name": "from",
          "type": "address"
        },
        {
          "indexed": true,
          "internalType": "address",
          "name": "to",
          "type": "address"
        }
      ],
      "name": "OwnershipTransferRequested",
      "type": "event"
    },
    {
      "anonymous": false,
      "inputs": [
        {
          "indexed": true,
          "internalType": "address",
          "name": "from",
          "type": "address"
        },
        {
          "indexed": true,
          "internalType": "address",
          "name": "to",
          "type": "address"
        }
      ],
      "name": "OwnershipTransferred",
      "type": "event"
    },
    {
      "anonymous": false,
      "inputs": [
        {
          "indexed": false,
          "internalType": "address",
          "name": "account",
          "type": "address"
        }
      ],
      "name": "Paused",
      "type": "event"
    },
    {
      "anonymous": false,
      "inputs": [
        {
          "indexed": true,
          "internalType": "address",
          "name": "keeper",
          "type": "address"
        },
        {
          "indexed": true,
          "internalType": "address",
          "name": "from",
          "type": "address"
        },
        {
          "indexed": true,
          "internalType": "address",
          "name": "to",
          "type": "address"
        }
      ],
      "name": "PayeeshipTransferRequested",
      "type": "event"
    },
    {
      "anonymous": false,
      "inputs": [
        {
          "indexed": true,
          "internalType": "address",
          "name": "keeper",
          "type": "address"
        },
        {
          "indexed": true,
          "internalType": "address",
          "name": "from",
          "type": "address"
        },
        {
          "indexed": true,
          "internalType": "address",
          "name": "to",
          "type": "address"
        }
      ],
      "name": "PayeeshipTransferred",
      "type": "event"
    },
    {
      "anonymous": false,
      "inputs": [
        {
          "indexed": true,
          "internalType": "address",
          "name": "keeper",
          "type": "address"
        },
        {
          "indexed": true,
          "internalType": "uint256",
          "name": "amount",
          "type": "uint256"
        },
        {
          "indexed": true,
          "internalType": "address",
          "name": "to",
          "type": "address"
        },
        {
          "indexed": false,
          "internalType": "address",
          "name": "payee",
          "type": "address"
        }
      ],
      "name": "PaymentWithdrawn",
      "type": "event"
    },
    {
      "anonymous": false,
      "inputs": [
        {
          "indexed": false,
          "internalType": "address",
          "name": "account",
          "type": "address"
        }
      ],
      "name": "Unpaused",
      "type": "event"
    },
    {
      "anonymous": false,
      "inputs": [
        {
          "indexed": true,
          "internalType": "uint256",
          "name": "id",
          "type": "uint256"
        },
        {
          "indexed": true,
          "internalType": "uint64",
          "name": "atBlockHeight",
          "type": "uint64"
        }
      ],
      "name": "UpkeepCanceled",
      "type": "event"
    },
    {
      "anonymous": false,
      "inputs": [
        {
          "indexed": true,
          "internalType": "uint256",
          "name": "id",
          "type": "uint256"
        },
        {
          "indexed": false,
          "internalType": "uint96",
          "name": "gasLimit",
          "type": "uint96"
        }
      ],
      "name": "UpkeepGasLimitSet",
      "type": "event"
    },
    {
      "anonymous": false,
      "inputs": [
        {
          "indexed": true,
          "internalType": "uint256",
          "name": "id",
          "type": "uint256"
        },
        {
          "indexed": false,
          "internalType": "uint256",
          "name": "remainingBalance",
          "type": "uint256"
        },
        {
          "indexed": false,
          "internalType": "address",
          "name": "destination",
          "type": "address"
        }
      ],
      "name": "UpkeepMigrated",
      "type": "event"
    },
    {
      "anonymous": false,
      "inputs": [
        {
          "indexed": true,
          "internalType": "uint256",
          "name": "id",
          "type": "uint256"
        },
        {
          "indexed": true,
          "internalType": "bool",
          "name": "success",
          "type": "bool"
        },
        {
          "indexed": true,
          "internalType": "address",
          "name": "from",
          "type": "address"
        },
        {
          "indexed": false,
          "internalType": "uint96",
          "name": "payment",
          "type": "uint96"
        },
        {
          "indexed": false,
          "internalType": "bytes",
          "name": "performData",
          "type": "bytes"
        }
      ],
      "name": "UpkeepPerformed",
      "type": "event"
    },
    {
      "anonymous": false,
      "inputs": [
        {
          "indexed": true,
          "internalType": "uint256",
          "name": "id",
          "type": "uint256"
        },
        {
          "indexed": false,
          "internalType": "uint256",
          "name": "startingBalance",
          "type": "uint256"
        },
        {
          "indexed": false,
          "internalType": "address",
          "name": "importedFrom",
          "type": "address"
        }
      ],
      "name": "UpkeepReceived",
      "type": "event"
    },
    {
      "anonymous": false,
      "inputs": [
        {
          "indexed": true,
          "internalType": "uint256",
          "name": "id",
          "type": "uint256"
        },
        {
          "indexed": false,
          "internalType": "uint32",
          "name": "executeGas",
          "type": "uint32"
        },
        {
          "indexed": false,
          "internalType": "address",
          "name": "admin",
          "type": "address"
        }
      ],
      "name": "UpkeepRegistered",
      "type": "event"
    },
    {
      "inputs": [],
      "name": "acceptOwnership",
      "outputs": [],
      "stateMutability": "nonpayable",
      "type": "function"
    },
    {
      "inputs": [
        {
          "internalType": "address",
          "name": "keeper",
          "type": "address"
        }
      ],
      "name": "acceptPayeeship",
      "outputs": [],
      "stateMutability": "nonpayable",
      "type": "function"
    },
    {
      "inputs": [
        {
          "internalType": "uint256",
          "name": "id",
          "type": "uint256"
        }
      ],
      "name": "cancelUpkeep",
      "outputs": [],
      "stateMutability": "nonpayable",
      "type": "function"
    },
    {
      "inputs": [
        {
          "internalType": "uint256",
          "name": "id",
          "type": "uint256"
        },
        {
          "internalType": "address",
          "name": "from",
          "type": "address"
        }
      ],
      "name": "checkUpkeep",
      "outputs": [
        {
          "internalType": "bytes",
          "name": "performData",
          "type": "bytes"
        },
        {
          "internalType": "uint256",
          "name": "gasLimit",
          "type": "uint256"
        }
      ],
      "stateMutability": "nonpayable",
      "type": "function"
    },
    {
      "inputs": [
        {
          "internalType": "uint256",
          "name": "startIndex",
          "type": "uint256"
        },
        {
          "internalType": "uint256",
          "name": "maxCount",
          "type": "uint256"
        }
      ],
      "name": "getActiveUpkeepIDs",
      "outputs": [
        {
          "internalType": "uint256[]",
          "name": "",
          "type": "uint256[]"
        }
      ],
      "stateMutability": "view",
      "type": "function"
    },
    {
      "inputs": [
        {
          "internalType": "address",
          "name": "query",
          "type": "address"
        }
      ],
      "name": "getKeeperInfo",
      "outputs": [
        {
          "internalType": "address",
          "name": "payee",
          "type": "address"
        },
        {
          "internalType": "bool",
          "name": "active",
          "type": "bool"
        },
        {
          "internalType": "uint96",
          "name": "balance",
          "type": "uint96"
        }
      ],
      "stateMutability": "view",
      "type": "function"
    },
    {
      "inputs": [
        {
          "internalType": "uint256",
          "name": "gasLimit",
          "type": "uint256"
        }
      ],
      "name": "getMaxPaymentForGas",
      "outputs": [
        {
          "internalType": "uint96",
          "name": "maxPayment",
          "type": "uint96"
        }
      ],
      "stateMutability": "pure",
      "type": "function"
    },
    {
      "inputs": [
        {
          "internalType": "uint256",
          "name": "id",
          "type": "uint256"
        }
      ],
      "name": "getMinBalanceForUpkeep",
      "outputs": [
        {
          "internalType": "uint96",
          "name": "minBalance",
          "type": "uint96"
        }
      ],
      "stateMutability": "view",
      "type": "function"
    },
    {
      "inputs": [],
      "name": "getState",
      "outputs": [
        {
          "components": [
            {
              "internalType": "uint32",
              "name": "nonce",
              "type": "uint32"
            },
            {
              "internalType": "uint256",
              "name": "numUpkeeps",
              "type": "uint256"
            }
          ],
          "internalType": "struct State",
          "name": "state",
          "type": "tuple"
        },
        {
          "components": [
            {
              "internalType": "uint24",
              "name": "blockCountPerTurn",
              "type": "uint24"
            },
            {
              "internalType": "uint32",
              "name": "checkGasLimit",
              "type": "uint32"
            },
            {
              "internalType": "uint32",
              "name": "maxPerformGas",
              "type": "uint32"
            },
            {
              "internalType": "address",
              "name": "registrar",
              "type": "address"
            }
          ],
          "internalType": "struct Config",
          "name": "config",
          "type": "tuple"
        },
        {
          "internalType": "address[]",
          "name": "keepers",
          "type": "address[]"
        }
      ],
      "stateMutability": "view",
      "type": "function"
    },
    {
      "inputs": [
        {
          "internalType": "uint256",
          "name": "id",
          "type": "uint256"
        }
      ],
      "name": "getUpkeep",
      "outputs": [
        {
          "internalType": "address",
          "name": "target",
          "type": "address"
        },
        {
          "internalType": "uint32",
          "name": "executeGas",
          "type": "uint32"
        },
        {
          "internalType": "bytes",
          "name": "checkData",
          "type": "bytes"
        },
        {
          "internalType": "uint96",
          "name": "balance",
          "type": "uint96"
        },
        {
          "internalType": "address",
          "name": "lastKeeper",
          "type": "address"
        },
        {
          "internalType": "address",
          "name": "admin",
          "type": "address"
        },
        {
          "internalType": "uint64",
          "name": "maxValidBlocknumber",
          "type": "uint64"
        },
        {
          "internalType": "uint96",
          "name": "amountSpent",
          "type": "uint96"
        }
      ],
      "stateMutability": "view",
      "type": "function"
    },
    {
      "inputs": [],
      "name": "owner",
      "outputs": [
        {
          "internalType": "address",
          "name": "",
          "type": "address"
        }
      ],
      "stateMutability": "view",
      "type": "function"
    },
    {
      "inputs": [],
      "name": "pause",
      "outputs": [],
      "stateMutability": "nonpayable",
      "type": "function"
    },
    {
      "inputs": [],
      "name": "paused",
      "outputs": [
        {
          "internalType": "bool",
          "name": "",
          "type": "bool"
        }
      ],
      "stateMutability": "view",
      "type": "function"
    },
    {
      "inputs": [
        {
          "internalType": "uint256",
          "name": "id",
          "type": "uint256"
        },
        {
          "internalType": "bytes",
          "name": "performData",
          "type": "bytes"
        }
      ],
      "name": "performUpkeep",
      "outputs": [
        {
          "internalType": "bool",
          "name": "success",
          "type": "bool"
        }
      ],
      "stateMutability": "nonpayable",
      "type": "function"
    },
    {
      "inputs": [
        {
          "internalType": "address",
          "name": "target",
          "type": "address"
        },
        {
          "internalType": "uint32",
          "name": "gasLimit",
          "type": "uint32"
        },
        {
          "internalType": "address",
          "name": "admin",
          "type": "address"
        },
        {
          "internalType": "bytes",
          "name": "checkData",
          "type": "bytes"
        }
      ],
      "name": "registerUpkeep",
      "outputs": [
        {
          "internalType": "uint256",
          "name": "id",
          "type": "uint256"
        }
      ],
      "stateMutability": "nonpayable",
      "type": "function"
    },
    {
      "inputs": [
        {
          "components": [
            {
              "internalType": "uint24",
              "name": "blockCountPerTurn",
              "type": "uint24"
            },
            {
              "internalType": "uint32",
              "name": "checkGasLimit",
              "type": "uint32"
            },
            {
              "internalType": "uint32",
              "name": "maxPerformGas",
              "type": "uint32"
            },
            {
              "internalType": "address",
              "name": "registrar",
              "type": "address"
            }
          ],
          "internalType": "struct Config",
          "name": "config",
          "type": "tuple"
        }
      ],
      "name": "setConfig",
      "outputs": [],
      "stateMutability": "nonpayable",
      "type": "function"
    },
    {
      "inputs": [
        {
          "internalType": "address[]",
          "name": "keepers",
          "type": "address[]"
        },
        {
          "internalType": "address[]",
          "name": "payees",
          "type": "address[]"
        }
      ],
      "name": "setKeepers",
      "outputs": [],
      "stateMutability": "nonpayable",
      "type": "function"
    },
    {
      "inputs": [
        {
          "internalType": "uint256",
          "name": "id",
          "type": "uint256"
        },
        {
          "internalType": "uint32",
          "name": "gasLimit",
          "type": "uint32"
        }
      ],
      "name": "setUpkeepGasLimit",
      "outputs": [],
      "stateMutability": "nonpayable",
      "type": "function"
    },
    {
      "inputs": [
        {
          "internalType": "address",
          "name": "to",
          "type": "address"
        }
      ],
      "name": "transferOwnership",
      "outputs": [],
      "stateMutability": "nonpayable",
      "type": "function"
    },
    {
      "inputs": [
        {
          "internalType": "address",
          "name": "keeper",
          "type": "address"
        },
        {
          "internalType": "address",
          "name": "proposed",
          "type": "address"
        }
      ],
      "name": "transferPayeeship",
      "outputs": [],
      "stateMutability": "nonpayable",
      "type": "function"
    },
    {
      "inputs": [],
      "name": "typeAndVersion",
      "outputs": [
        {
          "internalType": "string",
          "name": "",
          "type": "string"
        }
      ],
      "stateMutability": "view",
      "type": "function"
    },
    {
      "inputs": [],
      "name": "unpause",
      "outputs": [],
      "stateMutability": "nonpayable",
      "type": "function"
    }
  ],
  "bytecode": "0x60806040523480156200001157600080fd5b5060405162002cbc38038062002cbc833981016040819052620000349162000368565b33806000816200008b5760405162461bcd60e51b815260206004820152601860248201527f43616e6e6f7420736574206f776e657220746f207a65726f000000000000000060448201526064015b60405180910390fd5b600080546001600160a01b0319166001600160a01b0384811691909117909155811615620000be57620000be81620000e2565b50506001600255506003805460ff19169055620000db816200018e565b5062000405565b6001600160a01b0381163314156200013d5760405162461bcd60e51b815260206004820152601760248201527f43616e6e6f74207472616e7366657220746f2073656c66000000000000000000604482015260640162000082565b600180546001600160a01b0319166001600160a01b0383811691821790925560008054604051929316917fed8889f560326eb138920d842192f0eb3dd22b4f139c87a2c57538e05bae12789190a350565b62000198620002d8565b600b54604082015163ffffffff670100000000000000909204821691161015620001d557604051630e6af04160e21b815260040160405180910390fd5b6040805160808082018352835162ffffff9081168084526020808701805163ffffffff90811683880181905289890180518316898b01819052600b80546b010000000000000000000000808204871660609d8e018190520263ffffffff60581b1967010000000000000090940293909316600160381b600160781b0319630100000090960266ffffffffffffff19909216909917179390931696909617959095179055875189519095168552905181169184019190915290511693810193909352818401516001600160a01b0316918301919091527fd244b24cab6d7efc6d635ea6b1bf420ec6355edcdfc3075a2cd68575aa0989c2910160405180910390a150565b6000546001600160a01b03163314620003345760405162461bcd60e51b815260206004820152601660248201527f4f6e6c792063616c6c61626c65206279206f776e657200000000000000000000604482015260640162000082565b565b805163ffffffff811681146200034b57600080fd5b919050565b80516001600160a01b03811681146200034b57600080fd5b6000608082840312156200037b57600080fd5b604051608081016001600160401b0381118282101715620003ac57634e487b7160e01b600052604160045260246000fd5b604052825162ffffff81168114620003c357600080fd5b8152620003d36020840162000336565b6020820152620003e66040840162000336565b6040820152620003f96060840162000350565b60608201529392505050565b6128a780620004156000396000f3fe608060405234801561001057600080fd5b50600436106101825760003560e01c806393f0c1fc116100d8578063c41b813a1161008c578063da5c674111610066578063da5c6741146103fc578063eb5dcd6c1461041d578063f2fde38b1461043057600080fd5b8063c41b813a146103a1578063c7c3a19a146103c2578063c8048022146103e957600080fd5b8063b121e147116100bd578063b121e14714610368578063b657bc9c1461037b578063b7fdb4361461038e57600080fd5b806393f0c1fc1461032a578063a72aa27e1461035557600080fd5b80633f4ba83a1161013a5780637bbaf1ea116101145780637bbaf1ea146102f45780638456cb59146103075780638da5cb5b1461030f57600080fd5b80633f4ba83a146102cd5780635c975abb146102d557806379ba5097146102ec57600080fd5b80631865c57d1161016b5780631865c57d146101f95780631e12b8a51461021057806320e1cc56146102b857600080fd5b806306e3b63214610187578063181f5a77146101b0575b600080fd5b61019a610195366004611f90565b610443565b6040516101a79190611fb2565b60405180910390f35b6101ec6040518060400160405280601881526020017f426f6f6d4b6565706572526567697374727920312e302e30000000000000000081525081565b6040516101a79190612052565b610201610526565b6040516101a793929190612065565b61028a61021e366004612130565b6001600160a01b0390811660009081526008602090815260409182902082516060810184528154948516808252740100000000000000000000000000000000000000009095046001600160601b031692810183905260019091015460ff16151592018290529192909190565b604080516001600160a01b03909416845291151560208401526001600160601b0316908201526060016101a7565b6102cb6102c63660046121a6565b61064f565b005b6102cb61076c565b60035460ff165b60405190151581526020016101a7565b6102cb61077e565b6102dc61030236600461226f565b610834565b6102cb61088f565b6000546040516001600160a01b0390911681526020016101a7565b61033d6103383660046122bb565b61089f565b6040516001600160601b0390911681526020016101a7565b6102cb6103633660046122d4565b6108aa565b6102cb610376366004612130565b6109e0565b61033d6103893660046122bb565b610a8d565b6102cb61039c366004612345565b610aae565b6103b46103af3660046123b1565b610cfb565b6040516101a79291906123d4565b6103d56103d03660046122bb565b610ef0565b6040516101a79897969594939291906123f6565b6102cb6103f73660046122bb565b611060565b61040f61040a36600461246e565b6111d4565b6040519081526020016101a7565b6102cb61042b3660046124e4565b611332565b6102cb61043e366004612130565b611414565b606060006104516005611428565b905080841061047357604051631390f2a160e01b815260040160405180910390fd5b82610485576104828482612524565b92505b60008367ffffffffffffffff8111156104a0576104a061214b565b6040519080825280602002602001820160405280156104c9578160200160208202803683370190505b50905060005b8481101561051b576104ec6104e4828861253b565b600590611432565b8282815181106104fe576104fe612553565b60209081029190910101528061051381612569565b9150506104cf565b509150505b92915050565b604080518082019091526000808252602082015260408051608081018252600080825260208201819052918101829052606081019190915260408051608081018252600b5462ffffff8116825263ffffffff63010000008204811660208401526701000000000000008204811693830193909352600160581b90049091166060828101829052908452906105ba6005611428565b602080860191909152815162ffffff1684528181015163ffffffff9081168583015260408084015190911681860152600480548251818502810185019093528083528793879391839183018282801561063c57602002820191906000526020600020905b81546001600160a01b0316815260019091019060200180831161061e575b5050505050905093509350935050909192565b610657611445565b600b54604082015163ffffffff67010000000000000090920482169116101561069357604051630e6af04160e21b815260040160405180910390fd5b60408051608081018252825162ffffff1680825260208085015163ffffffff908116918401829052858501518116848601819052600b8054600160581b808204909416606090970187905266ffffffffffffff19169094176301000000909302929092176effffffffffffffff0000000000000019166701000000000000009092026effffffff00000000000000000000001916919091179202919091179055517fd244b24cab6d7efc6d635ea6b1bf420ec6355edcdfc3075a2cd68575aa0989c290610761908390612584565b60405180910390a150565b610774611445565b61077c61149f565b565b6001546001600160a01b031633146107dd5760405162461bcd60e51b815260206004820152601660248201527f4d7573742062652070726f706f736564206f776e65720000000000000000000060448201526064015b60405180910390fd5b60008054336001600160a01b0319808316821784556001805490911690556040516001600160a01b0390921692909183917f8be0079c531659141344cd1fd0a4f28419497f9722a3daafe3b4186f6b6457e091a350565b600061083e6114f1565b610887610882338686868080601f01602080910402602001604051908101604052809392919081815260200183838082843760009201919091525061154492505050565b6115bd565b949350505050565b610897611445565b61077c61186a565b6000610520826118a7565b6000828152600760205260409020600101548290640100000000900467ffffffffffffffff908116146108f057604051633425886760e21b815260040160405180910390fd5b6000838152600760205260409020600201548390600160601b90046001600160a01b031633146109335760405163523e0b8360e11b815260040160405180910390fd5b6108fc8363ffffffff16108061095f5750600b5463ffffffff6701000000000000009091048116908416115b1561097d576040516314c237fb60e01b815260040160405180910390fd5b600084815260076020908152604091829020600101805463ffffffff191663ffffffff8716908117909155915191825285917fc24c07e655ce79fba8a589778987d3c015bc6af1632bb20cf9182e02a65d972c910160405180910390a250505050565b6001600160a01b03818116600090815260096020526040902054163314610a1a576040516333a973d560e11b815260040160405180910390fd5b6001600160a01b0381811660008181526008602090815260408083208054336001600160a01b031980831682179093556009909452828520805490921690915590519416939092849290917f78af32efdcad432315431e9b03d27e6cd98fb79c405fdc5af7c1714d9c0f75b39190a45050565b6000818152600760205260408120600101546105209063ffffffff1661089f565b610ab6611445565b8281141580610ac55750600283105b15610ae3576040516367aa603560e11b815260040160405180910390fd5b60005b600454811015610b4457600060048281548110610b0557610b05612553565b60009182526020808320909101546001600160a01b031682526008905260409020600101805460ff191690555080610b3c81612569565b915050610ae6565b5060005b83811015610caa576000858583818110610b6457610b64612553565b9050602002016020810190610b799190612130565b6001600160a01b03808216600090815260086020526040812080549394509290911690868686818110610bae57610bae612553565b9050602002016020810190610bc39190612130565b90506001600160a01b0381161580610c1557506001600160a01b03821615801590610c005750806001600160a01b0316826001600160a01b031614155b8015610c1557506001600160a01b0381811614155b15610c3357604051631670f44760e31b815260040160405180910390fd5b600183015460ff1615610c5957604051630d5f433160e21b815260040160405180910390fd5b6001838101805460ff191690911790556001600160a01b0381811614610c935782546001600160a01b0319166001600160a01b0382161783555b505050508080610ca290612569565b915050610b48565b50610cb760048585611ea4565b507f056264c94f28bb06c99d13f0446eb96c67c215d8d707bce2655a98ddf1c0b71f84848484604051610ced9493929190612614565b60405180910390a150505050565b60606000610d076118d4565b6000848152600760209081526040808320815160e08101835281546001600160601b0380821683526001600160a01b03600160601b92839004811684880152600185015463ffffffff81168588015267ffffffffffffffff64010000000082041660608601528390048116608085015260029094015490811660a08401520490911660c0820152878452600a9092528083209051919291636e04ff0d60e01b91610db391602401612681565b604051602081830303815290604052906001600160e01b0319166020820180516001600160e01b038381831617835250505050905060008083608001516001600160a01b0316600b60000160039054906101000a900463ffffffff1663ffffffff1684604051610e239190612729565b60006040518083038160008787f1925050503d8060008114610e61576040519150601f19603f3d011682016040523d82523d6000602084013e610e66565b606091505b509150915081610e8b57806040516396c3623560e01b81526004016107d49190612052565b80806020019051810190610e9f9190612745565b9650915081610ec15760405163865676e360e01b815260040160405180910390fd5b6000610ece888a89611544565b9050610ede8582600001516118f3565b606001519450505050505b9250929050565b6000818152600760209081526040808320815160e08101835281546001600160601b0380821683526001600160a01b03600160601b928390048116848801908152600186015463ffffffff811686890181905267ffffffffffffffff64010000000083041660608881019182529287900485166080890181905260029099015495861660a089019081529690950490931660c087019081528b8b52600a9099529689208551915198519351945181548b9a8b998a998a998a998a9992989397929692959394939092908690610fc490612646565b80601f0160208091040260200160405190810160405280929190818152602001828054610ff090612646565b801561103d5780601f106110125761010080835404028352916020019161103d565b820191906000526020600020905b81548152906001019060200180831161102057829003601f168201915b505050505095509850985098509850985098509850985050919395975091939597565b60008181526007602052604081206001015467ffffffffffffffff640100000000909104811691908214159061109e6000546001600160a01b031690565b6001600160a01b0316336001600160a01b03161490508180156110d457508080156110d25750438367ffffffffffffffff16115b155b156110f257604051631f7806af60e31b815260040160405180910390fd5b801580156111215750600084815260076020526040902060020154600160601b90046001600160a01b03163314155b1561113f57604051637dedc72b60e11b815260040160405180910390fd5b43816111535761115060328261253b565b90505b600085815260076020526040902060010180546bffffffffffffffff00000000191664010000000067ffffffffffffffff841602179055611195600586611965565b5060405167ffffffffffffffff82169086907f91cb3bb75cfbd718bbfccc56b7f53d92d7048ef4ca39a3b7b7c6d4af1f79118190600090a35050505050565b60006111e1600143612524565b600b5460408051924060208401523060601b6bffffffffffffffffffffffff191690830152600160581b900460e01b7fffffffff000000000000000000000000000000000000000000000000000000001660548201526058016040516020818303038152906040528051906020012060001c905061129a81878787600088888080601f01602080910402602001604051908101604052809392919081815260200183838082843760009201919091525061197192505050565b600b8054600160581b900463ffffffff1690806112b6836127f4565b91906101000a81548163ffffffff021916908363ffffffff16021790555050807fbae366358c023f887e791d7a62f2e4316f1026bd77f6fb49501a917b3bc5d012868660405161132192919063ffffffff9290921682526001600160a01b0316602082015260400190565b60405180910390a295945050505050565b6001600160a01b0382811660009081526008602052604090205416331461136c5760405163cebf515b60e01b815260040160405180910390fd5b6001600160a01b03811633141561139657604051638c8728c760e01b815260040160405180910390fd5b6001600160a01b03828116600090815260096020526040902054811690821614611410576001600160a01b0382811660008181526009602052604080822080546001600160a01b0319169486169485179055513392917f84f7c7c80bb8ed2279b4aab5f61cd05e6374073d38f46d7f32de8c30e9e3836791a45b5050565b61141c611445565b61142581611be6565b50565b6000610520825490565b600061143e8383611c90565b9392505050565b6000546001600160a01b0316331461077c5760405162461bcd60e51b815260206004820152601660248201527f4f6e6c792063616c6c61626c65206279206f776e65720000000000000000000060448201526064016107d4565b6114a7611cba565b6003805460ff191690557f5db9ee0a495bf2e6ff9c91a7834c1ba4fdd244a5e8aa4e537bd38aeae4b073aa335b6040516001600160a01b03909116815260200160405180910390a1565b60035460ff161561077c5760405162461bcd60e51b815260206004820152601060248201527f5061757361626c653a207061757365640000000000000000000000000000000060448201526064016107d4565b611578604051806080016040528060006001600160a01b031681526020016000815260200160608152602001600081525090565b506000828152600760209081526040918290206001015482516080810184526001600160a01b039690961686529085019390935283015263ffffffff16606082015290565b60006002805414156116115760405162461bcd60e51b815260206004820152601f60248201527f5265656e7472616e637947756172643a207265656e7472616e742063616c6c0060448201526064016107d4565b60028055602082810151600081815260079092526040909120600101544364010000000090910467ffffffffffffffff161161166057604051633425886760e21b815260040160405180910390fd5b602080840151600090815260078252604090819020815160e08101835281546001600160601b0380821683526001600160a01b03600160601b92839004811696840196909652600184015463ffffffff81169584019590955267ffffffffffffffff6401000000008604166060840152938190048516608083015260029092015492831660a0820152910490911660c082015283516117009082906118f3565b60005a90506000634585e33b60e01b86604001516040516024016117249190612052565b604051602081830303815290604052906001600160e01b0319166020820180516001600160e01b038381831617835250505050905061176c8660600151846080015183611d0c565b94505a6117799083612524565b91506000611786836118a7565b6020808901516000908152600790915260409020600201549091506117b59082906001600160601b0316612818565b6020888101805160009081526007909252604080832060020180546bffffffffffffffffffffffff19166001600160601b039586161790558a5182518452928190208054909416600160601b6001600160a01b03948516021790935589519051838b01519351919092169289151592917fcaacad83e47cc45c280d487ec84184eee2fa3b54ebaa393bda7549f13da228f69161185391879190612843565b60405180910390a450505050506001600255919050565b6118726114f1565b6003805460ff191660011790557f62e78cea01bee320cd4e420270b5ea74000d11b0c9f74754ebdbfc544b05a2586114d43390565b6000806118b7620138808461253b565b90506000633b9aca006118ca8382612865565b6108879190612865565b321561077c5760405163b60ac5db60e01b815260040160405180910390fd5b6001600160a01b03811660009081526008602052604090206001015460ff1661192f576040516319f759fb60e31b815260040160405180910390fd5b806001600160a01b031682602001516001600160a01b0316141561141057604051621af04160e61b815260040160405180910390fd5b600061143e8383611d58565b6119796114f1565b6001600160a01b0385163b6119a1576040516309ee12d560e01b815260040160405180910390fd5b6108fc8463ffffffff1610806119cd5750600b5463ffffffff6701000000000000009091048116908516115b156119eb576040516314c237fb60e01b815260040160405180910390fd5b6040518060e00160405280836001600160601b0316815260200160006001600160a01b031681526020018563ffffffff16815260200167ffffffffffffffff80168152602001866001600160a01b0316815260200160006001600160601b03168152602001846001600160a01b03168152506007600088815260200190815260200160002060008201518160000160006101000a8154816001600160601b0302191690836001600160601b03160217905550602082015181600001600c6101000a8154816001600160a01b0302191690836001600160a01b0316021790555060408201518160010160006101000a81548163ffffffff021916908363ffffffff16021790555060608201518160010160046101000a81548167ffffffffffffffff021916908367ffffffffffffffff160217905550608082015181600101600c6101000a8154816001600160a01b0302191690836001600160a01b0316021790555060a08201518160020160006101000a8154816001600160601b0302191690836001600160601b0316021790555060c082015181600201600c6101000a8154816001600160a01b0302191690836001600160a01b0316021790555090505080600a60008881526020019081526020016000209080519060200190611bd1929190611f07565b50611bdd600587611e4b565b50505050505050565b6001600160a01b038116331415611c3f5760405162461bcd60e51b815260206004820152601760248201527f43616e6e6f74207472616e7366657220746f2073656c6600000000000000000060448201526064016107d4565b600180546001600160a01b0319166001600160a01b0383811691821790925560008054604051929316917fed8889f560326eb138920d842192f0eb3dd22b4f139c87a2c57538e05bae12789190a350565b6000826000018281548110611ca757611ca7612553565b9060005260206000200154905092915050565b60035460ff1661077c5760405162461bcd60e51b815260206004820152601460248201527f5061757361626c653a206e6f742070617573656400000000000000000000000060448201526064016107d4565b60005a611388811015611d1e57600080fd5b611388810390508460408204820311611d3657600080fd5b50823b611d4257600080fd5b60008083516020850160008789f1949350505050565b60008181526001830160205260408120548015611e41576000611d7c600183612524565b8554909150600090611d9090600190612524565b9050818114611df5576000866000018281548110611db057611db0612553565b9060005260206000200154905080876000018481548110611dd357611dd3612553565b6000918252602080832090910192909255918252600188019052604090208390555b8554869080611e0657611e06612884565b600190038181906000526020600020016000905590558560010160008681526020019081526020016000206000905560019350505050610520565b6000915050610520565b600081815260018301602052604081205461143e90849084908490611e9c57508154600181810184556000848152602080822090930184905584548482528286019093526040902091909155610520565b506000610520565b828054828255906000526020600020908101928215611ef7579160200282015b82811115611ef75781546001600160a01b0319166001600160a01b03843516178255602090920191600190910190611ec4565b50611f03929150611f7b565b5090565b828054611f1390612646565b90600052602060002090601f016020900481019282611f355760008555611ef7565b82601f10611f4e57805160ff1916838001178555611ef7565b82800160010185558215611ef7579182015b82811115611ef7578251825591602001919060010190611f60565b5b80821115611f035760008155600101611f7c565b60008060408385031215611fa357600080fd5b50508035926020909101359150565b6020808252825182820181905260009190848201906040850190845b81811015611fea57835183529284019291840191600101611fce565b50909695505050505050565b60005b83811015612011578181015183820152602001611ff9565b83811115612020576000848401525b50505050565b6000815180845261203e816020860160208601611ff6565b601f01601f19169290920160200192915050565b60208152600061143e6020830184612026565b600060e0820163ffffffff8651168352602080870151818501526120c7604085018762ffffff8151168252602081015163ffffffff808216602085015280604084015116604085015250506001600160a01b0360608201511660608301525050565b60e060c08501528451918290528085019161010085019060005b818110156121065784516001600160a01b0316835293830193918301916001016120e1565b509098975050505050505050565b80356001600160a01b038116811461212b57600080fd5b919050565b60006020828403121561214257600080fd5b61143e82612114565b634e487b7160e01b600052604160045260246000fd5b604051601f8201601f1916810167ffffffffffffffff8111828210171561218a5761218a61214b565b604052919050565b803563ffffffff8116811461212b57600080fd5b6000608082840312156121b857600080fd5b6040516080810181811067ffffffffffffffff821117156121db576121db61214b565b604052823562ffffff811681146121f157600080fd5b81526121ff60208401612192565b602082015261221060408401612192565b604082015261222160608401612114565b60608201529392505050565b60008083601f84011261223f57600080fd5b50813567ffffffffffffffff81111561225757600080fd5b602083019150836020828501011115610ee957600080fd5b60008060006040848603121561228457600080fd5b83359250602084013567ffffffffffffffff8111156122a257600080fd5b6122ae8682870161222d565b9497909650939450505050565b6000602082840312156122cd57600080fd5b5035919050565b600080604083850312156122e757600080fd5b823591506122f760208401612192565b90509250929050565b60008083601f84011261231257600080fd5b50813567ffffffffffffffff81111561232a57600080fd5b6020830191508360208260051b8501011115610ee957600080fd5b6000806000806040858703121561235b57600080fd5b843567ffffffffffffffff8082111561237357600080fd5b61237f88838901612300565b9096509450602087013591508082111561239857600080fd5b506123a587828801612300565b95989497509550505050565b600080604083850312156123c457600080fd5b823591506122f760208401612114565b6040815260006123e76040830185612026565b90508260208301529392505050565b60006101006001600160a01b03808c16845263ffffffff8b1660208501528160408501526124268285018b612026565b6001600160601b03998a16606086015297811660808501529590951660a08301525067ffffffffffffffff9290921660c083015290931660e090930192909252949350505050565b60008060008060006080868803121561248657600080fd5b61248f86612114565b945061249d60208701612192565b93506124ab60408701612114565b9250606086013567ffffffffffffffff8111156124c757600080fd5b6124d38882890161222d565b969995985093965092949392505050565b600080604083850312156124f757600080fd5b61250083612114565b91506122f760208401612114565b634e487b7160e01b600052601160045260246000fd5b6000828210156125365761253661250e565b500390565b6000821982111561254e5761254e61250e565b500190565b634e487b7160e01b600052603260045260246000fd5b600060001982141561257d5761257d61250e565b5060010190565b60808101610520828462ffffff8151168252602081015163ffffffff808216602085015280604084015116604085015250506001600160a01b0360608201511660608301525050565b8183526000602080850194508260005b85811015612609576001600160a01b036125f683612114565b16875295820195908201906001016125dd565b509495945050505050565b6040815260006126286040830186886125cd565b828103602084015261263b8185876125cd565b979650505050505050565b600181811c9082168061265a57607f821691505b6020821081141561267b57634e487b7160e01b600052602260045260246000fd5b50919050565b600060208083526000845481600182811c9150808316806126a357607f831692505b8583108114156126c157634e487b7160e01b85526022600452602485fd5b8786018381526020018180156126de57600181146126ef5761271a565b60ff1986168252878201965061271a565b60008b81526020902060005b86811015612714578154848201529085019089016126fb565b83019750505b50949998505050505050505050565b6000825161273b818460208701611ff6565b9190910192915050565b6000806040838503121561275857600080fd5b8251801515811461276857600080fd5b602084015190925067ffffffffffffffff8082111561278657600080fd5b818501915085601f83011261279a57600080fd5b8151818111156127ac576127ac61214b565b6127bf601f8201601f1916602001612161565b91508082528660208285010111156127d657600080fd5b6127e7816020840160208601611ff6565b5080925050509250929050565b600063ffffffff8083168181141561280e5761280e61250e565b6001019392505050565b60006001600160601b0380831681851680830382111561283a5761283a61250e565b01949350505050565b6001600160601b03831681526040602082015260006108876040830184612026565b600081600019048311821515161561287f5761287f61250e565b500290565b634e487b7160e01b600052603160045260246000fdfea164736f6c6343000809000a",
  "linkReferences": {},
  "deployedLinkReferences": {}
}