{
  "_format": "hh-sol-artifact-1",
  "contractName": "KeeperRegistry",
  "sourceName": "contracts/KeeperRegistry.sol",
  "abi": [
    {
      "inputs": [
        {
          "components": [
            {
              "internalType": "uint24",
              "name": "blockCountPerTurn",
              "type": "uint24"
            },
            {
              "internalType": "uint32",
              "name": "checkGasLimit",
              "type": "uint32"
            },
            {
              "internalType": "uint32",
              "name": "maxPerformGas",
              "type": "uint32"
            }
          ],
          "internalType": "struct Config",
          "name": "config",
          "type": "tuple"
        }
      ],
      "stateMutability": "nonpayable",
      "type": "constructor"
    },
    {
      "inputs": [],
      "name": "ArrayHasNoEntries",
      "type": "error"
    },
    {
      "inputs": [],
      "name": "CannotCancel",
      "type": "error"
    },
    {
      "inputs": [],
      "name": "DuplicateEntry",
      "type": "error"
    },
    {
      "inputs": [],
      "name": "GasLimitCanOnlyIncrease",
      "type": "error"
    },
    {
      "inputs": [],
      "name": "GasLimitOutsideRange",
      "type": "error"
    },
    {
      "inputs": [],
      "name": "IndexOutOfRange",
      "type": "error"
    },
    {
      "inputs": [],
      "name": "InvalidPayee",
      "type": "error"
    },
    {
      "inputs": [],
      "name": "InvalidRecipient",
      "type": "error"
    },
    {
      "inputs": [],
      "name": "KeepersMustTakeTurns",
      "type": "error"
    },
    {
      "inputs": [],
      "name": "MigrationNotPermitted",
      "type": "error"
    },
    {
      "inputs": [],
      "name": "NotAContract",
      "type": "error"
    },
    {
      "inputs": [],
      "name": "OnlyActiveKeepers",
      "type": "error"
    },
    {
      "inputs": [],
      "name": "OnlyCallableByAdmin",
      "type": "error"
    },
    {
      "inputs": [],
      "name": "OnlyCallableByOwnerOrAdmin",
      "type": "error"
    },
    {
      "inputs": [],
      "name": "OnlyCallableByPayee",
      "type": "error"
    },
    {
      "inputs": [],
      "name": "OnlyCallableByProposedPayee",
      "type": "error"
    },
    {
      "inputs": [],
      "name": "OnlySimulatedBackend",
      "type": "error"
    },
    {
      "inputs": [],
      "name": "ParameterLengthError",
      "type": "error"
    },
    {
      "inputs": [
        {
          "internalType": "bytes",
          "name": "reason",
          "type": "bytes"
        }
      ],
      "name": "TargetCheckReverted",
      "type": "error"
    },
    {
      "inputs": [],
      "name": "UpkeepNotActive",
      "type": "error"
    },
    {
      "inputs": [],
      "name": "UpkeepNotNeeded",
      "type": "error"
    },
    {
      "inputs": [],
      "name": "ValueNotChanged",
      "type": "error"
    },
    {
      "anonymous": false,
      "inputs": [
        {
          "components": [
            {
              "internalType": "uint24",
              "name": "blockCountPerTurn",
              "type": "uint24"
            },
            {
              "internalType": "uint32",
              "name": "checkGasLimit",
              "type": "uint32"
            },
            {
              "internalType": "uint32",
              "name": "maxPerformGas",
              "type": "uint32"
            }
          ],
          "indexed": false,
          "internalType": "struct Config",
          "name": "config",
          "type": "tuple"
        }
      ],
      "name": "ConfigSet",
      "type": "event"
    },
    {
      "anonymous": false,
      "inputs": [
        {
          "indexed": false,
          "internalType": "address[]",
          "name": "keepers",
          "type": "address[]"
        },
        {
          "indexed": false,
          "internalType": "address[]",
          "name": "payees",
          "type": "address[]"
        }
      ],
      "name": "KeepersUpdated",
      "type": "event"
    },
    {
      "anonymous": false,
      "inputs": [
        {
          "indexed": true,
          "internalType": "address",
          "name": "from",
          "type": "address"
        },
        {
          "indexed": true,
          "internalType": "address",
          "name": "to",
          "type": "address"
        }
      ],
      "name": "OwnershipTransferRequested",
      "type": "event"
    },
    {
      "anonymous": false,
      "inputs": [
        {
          "indexed": true,
          "internalType": "address",
          "name": "from",
          "type": "address"
        },
        {
          "indexed": true,
          "internalType": "address",
          "name": "to",
          "type": "address"
        }
      ],
      "name": "OwnershipTransferred",
      "type": "event"
    },
    {
      "anonymous": false,
      "inputs": [
        {
          "indexed": false,
          "internalType": "address",
          "name": "account",
          "type": "address"
        }
      ],
      "name": "Paused",
      "type": "event"
    },
    {
      "anonymous": false,
      "inputs": [
        {
          "indexed": true,
          "internalType": "address",
          "name": "keeper",
          "type": "address"
        },
        {
          "indexed": true,
          "internalType": "address",
          "name": "from",
          "type": "address"
        },
        {
          "indexed": true,
          "internalType": "address",
          "name": "to",
          "type": "address"
        }
      ],
      "name": "PayeeshipTransferRequested",
      "type": "event"
    },
    {
      "anonymous": false,
      "inputs": [
        {
          "indexed": true,
          "internalType": "address",
          "name": "keeper",
          "type": "address"
        },
        {
          "indexed": true,
          "internalType": "address",
          "name": "from",
          "type": "address"
        },
        {
          "indexed": true,
          "internalType": "address",
          "name": "to",
          "type": "address"
        }
      ],
      "name": "PayeeshipTransferred",
      "type": "event"
    },
    {
      "anonymous": false,
      "inputs": [
        {
          "indexed": true,
          "internalType": "address",
          "name": "keeper",
          "type": "address"
        },
        {
          "indexed": true,
          "internalType": "uint256",
          "name": "amount",
          "type": "uint256"
        },
        {
          "indexed": true,
          "internalType": "address",
          "name": "to",
          "type": "address"
        },
        {
          "indexed": false,
          "internalType": "address",
          "name": "payee",
          "type": "address"
        }
      ],
      "name": "PaymentWithdrawn",
      "type": "event"
    },
    {
      "anonymous": false,
      "inputs": [
        {
          "indexed": false,
          "internalType": "address",
          "name": "account",
          "type": "address"
        }
      ],
      "name": "Unpaused",
      "type": "event"
    },
    {
      "anonymous": false,
      "inputs": [
        {
          "indexed": true,
          "internalType": "uint256",
          "name": "id",
          "type": "uint256"
        },
        {
          "indexed": true,
          "internalType": "uint64",
          "name": "atBlockHeight",
          "type": "uint64"
        }
      ],
      "name": "UpkeepCanceled",
      "type": "event"
    },
    {
      "anonymous": false,
      "inputs": [
        {
          "indexed": true,
          "internalType": "uint256",
          "name": "id",
          "type": "uint256"
        },
        {
          "indexed": false,
          "internalType": "uint96",
          "name": "gasLimit",
          "type": "uint96"
        }
      ],
      "name": "UpkeepGasLimitSet",
      "type": "event"
    },
    {
      "anonymous": false,
      "inputs": [
        {
          "indexed": true,
          "internalType": "uint256",
          "name": "id",
          "type": "uint256"
        },
        {
          "indexed": false,
          "internalType": "uint256",
          "name": "remainingBalance",
          "type": "uint256"
        },
        {
          "indexed": false,
          "internalType": "address",
          "name": "destination",
          "type": "address"
        }
      ],
      "name": "UpkeepMigrated",
      "type": "event"
    },
    {
      "anonymous": false,
      "inputs": [
        {
          "indexed": true,
          "internalType": "uint256",
          "name": "id",
          "type": "uint256"
        },
        {
          "indexed": true,
          "internalType": "bool",
          "name": "success",
          "type": "bool"
        },
        {
          "indexed": true,
          "internalType": "address",
          "name": "from",
          "type": "address"
        },
        {
          "indexed": false,
          "internalType": "uint96",
          "name": "payment",
          "type": "uint96"
        },
        {
          "indexed": false,
          "internalType": "bytes",
          "name": "performData",
          "type": "bytes"
        }
      ],
      "name": "UpkeepPerformed",
      "type": "event"
    },
    {
      "anonymous": false,
      "inputs": [
        {
          "indexed": true,
          "internalType": "uint256",
          "name": "id",
          "type": "uint256"
        },
        {
          "indexed": false,
          "internalType": "uint256",
          "name": "startingBalance",
          "type": "uint256"
        },
        {
          "indexed": false,
          "internalType": "address",
          "name": "importedFrom",
          "type": "address"
        }
      ],
      "name": "UpkeepReceived",
      "type": "event"
    },
    {
      "anonymous": false,
      "inputs": [
        {
          "indexed": true,
          "internalType": "uint256",
          "name": "id",
          "type": "uint256"
        },
        {
          "indexed": false,
          "internalType": "uint32",
          "name": "executeGas",
          "type": "uint32"
        },
        {
          "indexed": false,
          "internalType": "address",
          "name": "admin",
          "type": "address"
        }
      ],
      "name": "UpkeepRegistered",
      "type": "event"
    },
    {
      "inputs": [],
      "name": "acceptOwnership",
      "outputs": [],
      "stateMutability": "nonpayable",
      "type": "function"
    },
    {
      "inputs": [
        {
          "internalType": "address",
          "name": "keeper",
          "type": "address"
        }
      ],
      "name": "acceptPayeeship",
      "outputs": [],
      "stateMutability": "nonpayable",
      "type": "function"
    },
    {
      "inputs": [
        {
          "internalType": "uint256",
          "name": "id",
          "type": "uint256"
        }
      ],
      "name": "cancelUpkeep",
      "outputs": [],
      "stateMutability": "nonpayable",
      "type": "function"
    },
    {
      "inputs": [
        {
          "internalType": "uint256",
          "name": "id",
          "type": "uint256"
        },
        {
          "internalType": "address",
          "name": "from",
          "type": "address"
        }
      ],
      "name": "checkUpkeep",
      "outputs": [
        {
          "internalType": "bytes",
          "name": "performData",
          "type": "bytes"
        },
        {
          "internalType": "uint256",
          "name": "gasLimit",
          "type": "uint256"
        }
      ],
      "stateMutability": "nonpayable",
      "type": "function"
    },
    {
      "inputs": [
        {
          "internalType": "uint256",
          "name": "startIndex",
          "type": "uint256"
        },
        {
          "internalType": "uint256",
          "name": "maxCount",
          "type": "uint256"
        }
      ],
      "name": "getActiveUpkeepIDs",
      "outputs": [
        {
          "internalType": "uint256[]",
          "name": "",
          "type": "uint256[]"
        }
      ],
      "stateMutability": "view",
      "type": "function"
    },
    {
      "inputs": [
        {
          "internalType": "address",
          "name": "query",
          "type": "address"
        }
      ],
      "name": "getKeeperInfo",
      "outputs": [
        {
          "internalType": "address",
          "name": "payee",
          "type": "address"
        },
        {
          "internalType": "bool",
          "name": "active",
          "type": "bool"
        },
        {
          "internalType": "uint96",
          "name": "balance",
          "type": "uint96"
        }
      ],
      "stateMutability": "view",
      "type": "function"
    },
    {
      "inputs": [
        {
          "internalType": "uint256",
          "name": "gasLimit",
          "type": "uint256"
        }
      ],
      "name": "getMaxPaymentForGas",
      "outputs": [
        {
          "internalType": "uint96",
          "name": "maxPayment",
          "type": "uint96"
        }
      ],
      "stateMutability": "pure",
      "type": "function"
    },
    {
      "inputs": [
        {
          "internalType": "uint256",
          "name": "id",
          "type": "uint256"
        }
      ],
      "name": "getMinBalanceForUpkeep",
      "outputs": [
        {
          "internalType": "uint96",
          "name": "minBalance",
          "type": "uint96"
        }
      ],
      "stateMutability": "view",
      "type": "function"
    },
    {
      "inputs": [],
      "name": "getState",
      "outputs": [
        {
          "components": [
            {
              "internalType": "uint32",
              "name": "nonce",
              "type": "uint32"
            },
            {
              "internalType": "uint256",
              "name": "numUpkeeps",
              "type": "uint256"
            }
          ],
          "internalType": "struct State",
          "name": "state",
          "type": "tuple"
        },
        {
          "components": [
            {
              "internalType": "uint24",
              "name": "blockCountPerTurn",
              "type": "uint24"
            },
            {
              "internalType": "uint32",
              "name": "checkGasLimit",
              "type": "uint32"
            },
            {
              "internalType": "uint32",
              "name": "maxPerformGas",
              "type": "uint32"
            }
          ],
          "internalType": "struct Config",
          "name": "config",
          "type": "tuple"
        },
        {
          "internalType": "address[]",
          "name": "keepers",
          "type": "address[]"
        }
      ],
      "stateMutability": "view",
      "type": "function"
    },
    {
      "inputs": [
        {
          "internalType": "uint256",
          "name": "id",
          "type": "uint256"
        }
      ],
      "name": "getUpkeep",
      "outputs": [
        {
          "internalType": "address",
          "name": "target",
          "type": "address"
        },
        {
          "internalType": "uint32",
          "name": "executeGas",
          "type": "uint32"
        },
        {
          "internalType": "bytes",
          "name": "checkData",
          "type": "bytes"
        },
        {
          "internalType": "uint96",
          "name": "balance",
          "type": "uint96"
        },
        {
          "internalType": "address",
          "name": "lastKeeper",
          "type": "address"
        },
        {
          "internalType": "address",
          "name": "admin",
          "type": "address"
        },
        {
          "internalType": "uint64",
          "name": "maxValidBlocknumber",
          "type": "uint64"
        },
        {
          "internalType": "uint96",
          "name": "amountSpent",
          "type": "uint96"
        }
      ],
      "stateMutability": "view",
      "type": "function"
    },
    {
      "inputs": [],
      "name": "owner",
      "outputs": [
        {
          "internalType": "address",
          "name": "",
          "type": "address"
        }
      ],
      "stateMutability": "view",
      "type": "function"
    },
    {
      "inputs": [],
      "name": "pause",
      "outputs": [],
      "stateMutability": "nonpayable",
      "type": "function"
    },
    {
      "inputs": [],
      "name": "paused",
      "outputs": [
        {
          "internalType": "bool",
          "name": "",
          "type": "bool"
        }
      ],
      "stateMutability": "view",
      "type": "function"
    },
    {
      "inputs": [
        {
          "internalType": "uint256",
          "name": "id",
          "type": "uint256"
        },
        {
          "internalType": "bytes",
          "name": "performData",
          "type": "bytes"
        }
      ],
      "name": "performUpkeep",
      "outputs": [
        {
          "internalType": "bool",
          "name": "success",
          "type": "bool"
        }
      ],
      "stateMutability": "nonpayable",
      "type": "function"
    },
    {
      "inputs": [
        {
          "internalType": "address",
          "name": "target",
          "type": "address"
        },
        {
          "internalType": "uint32",
          "name": "gasLimit",
          "type": "uint32"
        },
        {
          "internalType": "address",
          "name": "admin",
          "type": "address"
        },
        {
          "internalType": "bytes",
          "name": "checkData",
          "type": "bytes"
        }
      ],
      "name": "registerUpkeep",
      "outputs": [
        {
          "internalType": "uint256",
          "name": "id",
          "type": "uint256"
        }
      ],
      "stateMutability": "nonpayable",
      "type": "function"
    },
    {
      "inputs": [
        {
          "components": [
            {
              "internalType": "uint24",
              "name": "blockCountPerTurn",
              "type": "uint24"
            },
            {
              "internalType": "uint32",
              "name": "checkGasLimit",
              "type": "uint32"
            },
            {
              "internalType": "uint32",
              "name": "maxPerformGas",
              "type": "uint32"
            }
          ],
          "internalType": "struct Config",
          "name": "config",
          "type": "tuple"
        }
      ],
      "name": "setConfig",
      "outputs": [],
      "stateMutability": "nonpayable",
      "type": "function"
    },
    {
      "inputs": [
        {
          "internalType": "address[]",
          "name": "keepers",
          "type": "address[]"
        },
        {
          "internalType": "address[]",
          "name": "payees",
          "type": "address[]"
        }
      ],
      "name": "setKeepers",
      "outputs": [],
      "stateMutability": "nonpayable",
      "type": "function"
    },
    {
      "inputs": [
        {
          "internalType": "uint256",
          "name": "id",
          "type": "uint256"
        },
        {
          "internalType": "uint32",
          "name": "gasLimit",
          "type": "uint32"
        }
      ],
      "name": "setUpkeepGasLimit",
      "outputs": [],
      "stateMutability": "nonpayable",
      "type": "function"
    },
    {
      "inputs": [
        {
          "internalType": "address",
          "name": "to",
          "type": "address"
        }
      ],
      "name": "transferOwnership",
      "outputs": [],
      "stateMutability": "nonpayable",
      "type": "function"
    },
    {
      "inputs": [
        {
          "internalType": "address",
          "name": "keeper",
          "type": "address"
        },
        {
          "internalType": "address",
          "name": "proposed",
          "type": "address"
        }
      ],
      "name": "transferPayeeship",
      "outputs": [],
      "stateMutability": "nonpayable",
      "type": "function"
    },
    {
      "inputs": [],
      "name": "typeAndVersion",
      "outputs": [
        {
          "internalType": "string",
          "name": "",
          "type": "string"
        }
      ],
      "stateMutability": "view",
      "type": "function"
    },
    {
      "inputs": [],
      "name": "unpause",
      "outputs": [],
      "stateMutability": "nonpayable",
      "type": "function"
    }
  ],
  "bytecode": "0x60806040523480156200001157600080fd5b5060405162002c3738038062002c3783398101604081905262000034916200033b565b33806000816200008b5760405162461bcd60e51b815260206004820152601860248201527f43616e6e6f7420736574206f776e657220746f207a65726f000000000000000060448201526064015b60405180910390fd5b600080546001600160a01b0319166001600160a01b0384811691909117909155811615620000be57620000be81620000e2565b50506001600255506003805460ff19169055620000db816200018e565b50620003c5565b6001600160a01b0381163314156200013d5760405162461bcd60e51b815260206004820152601760248201527f43616e6e6f74207472616e7366657220746f2073656c66000000000000000000604482015260640162000082565b600180546001600160a01b0319166001600160a01b0383811691821790925560008054604051929316917fed8889f560326eb138920d842192f0eb3dd22b4f139c87a2c57538e05bae12789190a350565b62000198620002c3565b600b54604082015163ffffffff670100000000000000909204821691161015620001d557604051630e6af04160e21b815260040160405180910390fd5b60408051608081018252825162ffffff9081168083526020808601805163ffffffff90811683870181905288880180518316888a01819052600b80546b010000000000000000000000808204871660609c8d018190520263ffffffff60581b1967010000000000000090940293909316600160381b600160781b0319630100000090960266ffffffffffffff199092169099171793909316969096179590951790558651885190951685529051811691840191909152905116928101929092527fddef1d6c34315cc73b8ee4194190e11d378bba189e1bb9480b4adafd7f36ccb8910160405180910390a150565b6000546001600160a01b031633146200031f5760405162461bcd60e51b815260206004820152601660248201527f4f6e6c792063616c6c61626c65206279206f776e657200000000000000000000604482015260640162000082565b565b805163ffffffff811681146200033657600080fd5b919050565b6000606082840312156200034e57600080fd5b604051606081016001600160401b03811182821017156200037f57634e487b7160e01b600052604160045260246000fd5b604052825162ffffff811681146200039657600080fd5b8152620003a66020840162000321565b6020820152620003b96040840162000321565b60408201529392505050565b61286280620003d56000396000f3fe608060405234801561001057600080fd5b50600436106101825760003560e01c8063a72aa27e116100d8578063c7c3a19a1161008c578063da5c674111610066578063da5c6741146103fc578063eb5dcd6c1461041d578063f2fde38b1461043057600080fd5b8063c7c3a19a146103af578063c8048022146103d6578063d0506186146103e957600080fd5b8063b657bc9c116100bd578063b657bc9c14610368578063b7fdb4361461037b578063c41b813a1461038e57600080fd5b8063a72aa27e14610342578063b121e1471461035557600080fd5b80635c975abb1161013a5780638456cb59116101145780638456cb59146102f45780638da5cb5b146102fc57806393f0c1fc1461031757600080fd5b80635c975abb146102c257806379ba5097146102d95780637bbaf1ea146102e157600080fd5b80631865c57d1161016b5780631865c57d146101f95780631e12b8a5146102105780633f4ba83a146102b857600080fd5b806306e3b63214610187578063181f5a77146101b0575b600080fd5b61019a610195366004611f89565b610443565b6040516101a79190611fab565b60405180910390f35b6101ec6040518060400160405280601881526020017f426f6f6d4b6565706572526567697374727920312e302e30000000000000000081525081565b6040516101a7919061204b565b610201610526565b6040516101a79392919061205e565b61028a61021e366004612112565b6001600160a01b0390811660009081526008602090815260409182902082516060810184528154948516808252740100000000000000000000000000000000000000009095046001600160601b031692810183905260019091015460ff16151592018290529192909190565b604080516001600160a01b03909416845291151560208401526001600160601b0316908201526060016101a7565b6102c0610648565b005b60035460ff165b60405190151581526020016101a7565b6102c061065a565b6102c96102ef36600461216f565b610710565b6102c061076b565b6000546040516001600160a01b0390911681526020016101a7565b61032a6103253660046121bb565b61077b565b6040516001600160601b0390911681526020016101a7565b6102c06103503660046121e8565b610786565b6102c0610363366004612112565b6108bc565b61032a6103763660046121bb565b610969565b6102c0610389366004612259565b61098a565b6103a161039c3660046122c5565b610bd7565b6040516101a79291906122e8565b6103c26103bd3660046121bb565b610dcc565b6040516101a798979695949392919061230a565b6102c06103e43660046121bb565b610f3c565b6102c06103f73660046123c9565b6110b0565b61040f61040a36600461243f565b6111cd565b6040519081526020016101a7565b6102c061042b3660046124b5565b61132b565b6102c061043e366004612112565b61140d565b606060006104516005611421565b905080841061047357604051631390f2a160e01b815260040160405180910390fd5b826104855761048284826124f5565b92505b60008367ffffffffffffffff8111156104a0576104a0612382565b6040519080825280602002602001820160405280156104c9578160200160208202803683370190505b50905060005b8481101561051b576104ec6104e4828861250c565b60059061142b565b8282815181106104fe576104fe612524565b6020908102919091010152806105138161253a565b9150506104cf565b509150505b92915050565b6040805180820190915260008082526020820152604080516060810182526000808252602082018190529181019190915260408051608081018252600b5462ffffff8116825263ffffffff63010000008204811660208401526701000000000000008204811693830193909352600160581b90049091166060828101829052908452906105b36005611421565b602080860191909152815162ffffff1684528181015163ffffffff9081168583015260408084015190911681860152600480548251818502810185019093528083528793879391839183018282801561063557602002820191906000526020600020905b81546001600160a01b03168152600190910190602001808311610617575b5050505050905093509350935050909192565b61065061143e565b610658611498565b565b6001546001600160a01b031633146106b95760405162461bcd60e51b815260206004820152601660248201527f4d7573742062652070726f706f736564206f776e65720000000000000000000060448201526064015b60405180910390fd5b60008054336001600160a01b0319808316821784556001805490911690556040516001600160a01b0390921692909183917f8be0079c531659141344cd1fd0a4f28419497f9722a3daafe3b4186f6b6457e091a350565b600061071a6114ea565b61076361075e338686868080601f01602080910402602001604051908101604052809392919081815260200183838082843760009201919091525061153d92505050565b6115b6565b949350505050565b61077361143e565b610658611863565b6000610520826118a0565b6000828152600760205260409020600101548290640100000000900467ffffffffffffffff908116146107cc57604051633425886760e21b815260040160405180910390fd5b6000838152600760205260409020600201548390600160601b90046001600160a01b0316331461080f5760405163523e0b8360e11b815260040160405180910390fd5b6108fc8363ffffffff16108061083b5750600b5463ffffffff6701000000000000009091048116908416115b15610859576040516314c237fb60e01b815260040160405180910390fd5b600084815260076020908152604091829020600101805463ffffffff191663ffffffff8716908117909155915191825285917fc24c07e655ce79fba8a589778987d3c015bc6af1632bb20cf9182e02a65d972c910160405180910390a250505050565b6001600160a01b038181166000908152600960205260409020541633146108f6576040516333a973d560e11b815260040160405180910390fd5b6001600160a01b0381811660008181526008602090815260408083208054336001600160a01b031980831682179093556009909452828520805490921690915590519416939092849290917f78af32efdcad432315431e9b03d27e6cd98fb79c405fdc5af7c1714d9c0f75b39190a45050565b6000818152600760205260408120600101546105209063ffffffff1661077b565b61099261143e565b82811415806109a15750600283105b156109bf576040516367aa603560e11b815260040160405180910390fd5b60005b600454811015610a20576000600482815481106109e1576109e1612524565b60009182526020808320909101546001600160a01b031682526008905260409020600101805460ff191690555080610a188161253a565b9150506109c2565b5060005b83811015610b86576000858583818110610a4057610a40612524565b9050602002016020810190610a559190612112565b6001600160a01b03808216600090815260086020526040812080549394509290911690868686818110610a8a57610a8a612524565b9050602002016020810190610a9f9190612112565b90506001600160a01b0381161580610af157506001600160a01b03821615801590610adc5750806001600160a01b0316826001600160a01b031614155b8015610af157506001600160a01b0381811614155b15610b0f57604051631670f44760e31b815260040160405180910390fd5b600183015460ff1615610b3557604051630d5f433160e21b815260040160405180910390fd5b6001838101805460ff191690911790556001600160a01b0381811614610b6f5782546001600160a01b0319166001600160a01b0382161783555b505050508080610b7e9061253a565b915050610a24565b50610b9360048585611e9d565b507f056264c94f28bb06c99d13f0446eb96c67c215d8d707bce2655a98ddf1c0b71f84848484604051610bc9949392919061259c565b60405180910390a150505050565b60606000610be36118cd565b6000848152600760209081526040808320815160e08101835281546001600160601b0380821683526001600160a01b03600160601b92839004811684880152600185015463ffffffff81168588015267ffffffffffffffff64010000000082041660608601528390048116608085015260029094015490811660a08401520490911660c0820152878452600a9092528083209051919291636e04ff0d60e01b91610c8f91602401612609565b604051602081830303815290604052906001600160e01b0319166020820180516001600160e01b038381831617835250505050905060008083608001516001600160a01b0316600b60000160039054906101000a900463ffffffff1663ffffffff1684604051610cff91906126b1565b60006040518083038160008787f1925050503d8060008114610d3d576040519150601f19603f3d011682016040523d82523d6000602084013e610d42565b606091505b509150915081610d6757806040516396c3623560e01b81526004016106b0919061204b565b80806020019051810190610d7b91906126cd565b9650915081610d9d5760405163865676e360e01b815260040160405180910390fd5b6000610daa888a8961153d565b9050610dba8582600001516118ec565b606001519450505050505b9250929050565b6000818152600760209081526040808320815160e08101835281546001600160601b0380821683526001600160a01b03600160601b928390048116848801908152600186015463ffffffff811686890181905267ffffffffffffffff64010000000083041660608881019182529287900485166080890181905260029099015495861660a089019081529690950490931660c087019081528b8b52600a9099529689208551915198519351945181548b9a8b998a998a998a998a9992989397929692959394939092908690610ea0906125ce565b80601f0160208091040260200160405190810160405280929190818152602001828054610ecc906125ce565b8015610f195780601f10610eee57610100808354040283529160200191610f19565b820191906000526020600020905b815481529060010190602001808311610efc57829003601f168201915b505050505095509850985098509850985098509850985050919395975091939597565b60008181526007602052604081206001015467ffffffffffffffff6401000000009091048116919082141590610f7a6000546001600160a01b031690565b6001600160a01b0316336001600160a01b0316149050818015610fb05750808015610fae5750438367ffffffffffffffff16115b155b15610fce57604051631f7806af60e31b815260040160405180910390fd5b80158015610ffd5750600084815260076020526040902060020154600160601b90046001600160a01b03163314155b1561101b57604051637dedc72b60e11b815260040160405180910390fd5b438161102f5761102c60328261250c565b90505b600085815260076020526040902060010180546bffffffffffffffff00000000191664010000000067ffffffffffffffff84160217905561107160058661195e565b5060405167ffffffffffffffff82169086907f91cb3bb75cfbd718bbfccc56b7f53d92d7048ef4ca39a3b7b7c6d4af1f79118190600090a35050505050565b6110b861143e565b600b54604082015163ffffffff6701000000000000009092048216911610156110f457604051630e6af04160e21b815260040160405180910390fd5b60408051608081018252825162ffffff1680825260208085015163ffffffff908116918401829052858501518116848601819052600b8054600160581b808204909416606090970187905266ffffffffffffff19169094176301000000909302929092176effffffffffffffff0000000000000019166701000000000000009092026effffffff00000000000000000000001916919091179202919091179055517fddef1d6c34315cc73b8ee4194190e11d378bba189e1bb9480b4adafd7f36ccb8906111c290839061277c565b60405180910390a150565b60006111da6001436124f5565b600b5460408051924060208401523060601b6bffffffffffffffffffffffff191690830152600160581b900460e01b7fffffffff000000000000000000000000000000000000000000000000000000001660548201526058016040516020818303038152906040528051906020012060001c905061129381878787600088888080601f01602080910402602001604051908101604052809392919081815260200183838082843760009201919091525061196a92505050565b600b8054600160581b900463ffffffff1690806112af836127af565b91906101000a81548163ffffffff021916908363ffffffff16021790555050807fbae366358c023f887e791d7a62f2e4316f1026bd77f6fb49501a917b3bc5d012868660405161131a92919063ffffffff9290921682526001600160a01b0316602082015260400190565b60405180910390a295945050505050565b6001600160a01b038281166000908152600860205260409020541633146113655760405163cebf515b60e01b815260040160405180910390fd5b6001600160a01b03811633141561138f57604051638c8728c760e01b815260040160405180910390fd5b6001600160a01b03828116600090815260096020526040902054811690821614611409576001600160a01b0382811660008181526009602052604080822080546001600160a01b0319169486169485179055513392917f84f7c7c80bb8ed2279b4aab5f61cd05e6374073d38f46d7f32de8c30e9e3836791a45b5050565b61141561143e565b61141e81611bdf565b50565b6000610520825490565b60006114378383611c89565b9392505050565b6000546001600160a01b031633146106585760405162461bcd60e51b815260206004820152601660248201527f4f6e6c792063616c6c61626c65206279206f776e65720000000000000000000060448201526064016106b0565b6114a0611cb3565b6003805460ff191690557f5db9ee0a495bf2e6ff9c91a7834c1ba4fdd244a5e8aa4e537bd38aeae4b073aa335b6040516001600160a01b03909116815260200160405180910390a1565b60035460ff16156106585760405162461bcd60e51b815260206004820152601060248201527f5061757361626c653a207061757365640000000000000000000000000000000060448201526064016106b0565b611571604051806080016040528060006001600160a01b031681526020016000815260200160608152602001600081525090565b506000828152600760209081526040918290206001015482516080810184526001600160a01b039690961686529085019390935283015263ffffffff16606082015290565b600060028054141561160a5760405162461bcd60e51b815260206004820152601f60248201527f5265656e7472616e637947756172643a207265656e7472616e742063616c6c0060448201526064016106b0565b60028055602082810151600081815260079092526040909120600101544364010000000090910467ffffffffffffffff161161165957604051633425886760e21b815260040160405180910390fd5b602080840151600090815260078252604090819020815160e08101835281546001600160601b0380821683526001600160a01b03600160601b92839004811696840196909652600184015463ffffffff81169584019590955267ffffffffffffffff6401000000008604166060840152938190048516608083015260029092015492831660a0820152910490911660c082015283516116f99082906118ec565b60005a90506000634585e33b60e01b866040015160405160240161171d919061204b565b604051602081830303815290604052906001600160e01b0319166020820180516001600160e01b03838183161783525050505090506117658660600151846080015183611d05565b94505a61177290836124f5565b9150600061177f836118a0565b6020808901516000908152600790915260409020600201549091506117ae9082906001600160601b03166127d3565b6020888101805160009081526007909252604080832060020180546bffffffffffffffffffffffff19166001600160601b039586161790558a5182518452928190208054909416600160601b6001600160a01b03948516021790935589519051838b01519351919092169289151592917fcaacad83e47cc45c280d487ec84184eee2fa3b54ebaa393bda7549f13da228f69161184c918791906127fe565b60405180910390a450505050506001600255919050565b61186b6114ea565b6003805460ff191660011790557f62e78cea01bee320cd4e420270b5ea74000d11b0c9f74754ebdbfc544b05a2586114cd3390565b6000806118b0620138808461250c565b90506000633b9aca006118c38382612820565b6107639190612820565b32156106585760405163b60ac5db60e01b815260040160405180910390fd5b6001600160a01b03811660009081526008602052604090206001015460ff16611928576040516319f759fb60e31b815260040160405180910390fd5b806001600160a01b031682602001516001600160a01b0316141561140957604051621af04160e61b815260040160405180910390fd5b60006114378383611d51565b6119726114ea565b6001600160a01b0385163b61199a576040516309ee12d560e01b815260040160405180910390fd5b6108fc8463ffffffff1610806119c65750600b5463ffffffff6701000000000000009091048116908516115b156119e4576040516314c237fb60e01b815260040160405180910390fd5b6040518060e00160405280836001600160601b0316815260200160006001600160a01b031681526020018563ffffffff16815260200167ffffffffffffffff80168152602001866001600160a01b0316815260200160006001600160601b03168152602001846001600160a01b03168152506007600088815260200190815260200160002060008201518160000160006101000a8154816001600160601b0302191690836001600160601b03160217905550602082015181600001600c6101000a8154816001600160a01b0302191690836001600160a01b0316021790555060408201518160010160006101000a81548163ffffffff021916908363ffffffff16021790555060608201518160010160046101000a81548167ffffffffffffffff021916908367ffffffffffffffff160217905550608082015181600101600c6101000a8154816001600160a01b0302191690836001600160a01b0316021790555060a08201518160020160006101000a8154816001600160601b0302191690836001600160601b0316021790555060c082015181600201600c6101000a8154816001600160a01b0302191690836001600160a01b0316021790555090505080600a60008881526020019081526020016000209080519060200190611bca929190611f00565b50611bd6600587611e44565b50505050505050565b6001600160a01b038116331415611c385760405162461bcd60e51b815260206004820152601760248201527f43616e6e6f74207472616e7366657220746f2073656c6600000000000000000060448201526064016106b0565b600180546001600160a01b0319166001600160a01b0383811691821790925560008054604051929316917fed8889f560326eb138920d842192f0eb3dd22b4f139c87a2c57538e05bae12789190a350565b6000826000018281548110611ca057611ca0612524565b9060005260206000200154905092915050565b60035460ff166106585760405162461bcd60e51b815260206004820152601460248201527f5061757361626c653a206e6f742070617573656400000000000000000000000060448201526064016106b0565b60005a611388811015611d1757600080fd5b611388810390508460408204820311611d2f57600080fd5b50823b611d3b57600080fd5b60008083516020850160008789f1949350505050565b60008181526001830160205260408120548015611e3a576000611d756001836124f5565b8554909150600090611d89906001906124f5565b9050818114611dee576000866000018281548110611da957611da9612524565b9060005260206000200154905080876000018481548110611dcc57611dcc612524565b6000918252602080832090910192909255918252600188019052604090208390555b8554869080611dff57611dff61283f565b600190038181906000526020600020016000905590558560010160008681526020019081526020016000206000905560019350505050610520565b6000915050610520565b600081815260018301602052604081205461143790849084908490611e9557508154600181810184556000848152602080822090930184905584548482528286019093526040902091909155610520565b506000610520565b828054828255906000526020600020908101928215611ef0579160200282015b82811115611ef05781546001600160a01b0319166001600160a01b03843516178255602090920191600190910190611ebd565b50611efc929150611f74565b5090565b828054611f0c906125ce565b90600052602060002090601f016020900481019282611f2e5760008555611ef0565b82601f10611f4757805160ff1916838001178555611ef0565b82800160010185558215611ef0579182015b82811115611ef0578251825591602001919060010190611f59565b5b80821115611efc5760008155600101611f75565b60008060408385031215611f9c57600080fd5b50508035926020909101359150565b6020808252825182820181905260009190848201906040850190845b81811015611fe357835183529284019291840191600101611fc7565b50909695505050505050565b60005b8381101561200a578181015183820152602001611ff2565b83811115612019576000848401525b50505050565b60008151808452612037816020860160208601611fef565b601f01601f19169290920160200192915050565b602081526000611437602083018461201f565b600060c0820163ffffffff8651168352602080870151818501526120aa6040850187805162ffffff16825260208082015163ffffffff9081169184019190915260409182015116910152565b60c060a08501528451918290528085019160e085019060005b818110156120e85784516001600160a01b0316835293830193918301916001016120c3565b509098975050505050505050565b80356001600160a01b038116811461210d57600080fd5b919050565b60006020828403121561212457600080fd5b611437826120f6565b60008083601f84011261213f57600080fd5b50813567ffffffffffffffff81111561215757600080fd5b602083019150836020828501011115610dc557600080fd5b60008060006040848603121561218457600080fd5b83359250602084013567ffffffffffffffff8111156121a257600080fd5b6121ae8682870161212d565b9497909650939450505050565b6000602082840312156121cd57600080fd5b5035919050565b803563ffffffff8116811461210d57600080fd5b600080604083850312156121fb57600080fd5b8235915061220b602084016121d4565b90509250929050565b60008083601f84011261222657600080fd5b50813567ffffffffffffffff81111561223e57600080fd5b6020830191508360208260051b8501011115610dc557600080fd5b6000806000806040858703121561226f57600080fd5b843567ffffffffffffffff8082111561228757600080fd5b61229388838901612214565b909650945060208701359150808211156122ac57600080fd5b506122b987828801612214565b95989497509550505050565b600080604083850312156122d857600080fd5b8235915061220b602084016120f6565b6040815260006122fb604083018561201f565b90508260208301529392505050565b60006101006001600160a01b03808c16845263ffffffff8b16602085015281604085015261233a8285018b61201f565b6001600160601b03998a16606086015297811660808501529590951660a08301525067ffffffffffffffff9290921660c083015290931660e090930192909252949350505050565b634e487b7160e01b600052604160045260246000fd5b604051601f8201601f1916810167ffffffffffffffff811182821017156123c1576123c1612382565b604052919050565b6000606082840312156123db57600080fd5b6040516060810181811067ffffffffffffffff821117156123fe576123fe612382565b604052823562ffffff8116811461241457600080fd5b8152612422602084016121d4565b6020820152612433604084016121d4565b60408201529392505050565b60008060008060006080868803121561245757600080fd5b612460866120f6565b945061246e602087016121d4565b935061247c604087016120f6565b9250606086013567ffffffffffffffff81111561249857600080fd5b6124a48882890161212d565b969995985093965092949392505050565b600080604083850312156124c857600080fd5b6124d1836120f6565b915061220b602084016120f6565b634e487b7160e01b600052601160045260246000fd5b600082821015612507576125076124df565b500390565b6000821982111561251f5761251f6124df565b500190565b634e487b7160e01b600052603260045260246000fd5b600060001982141561254e5761254e6124df565b5060010190565b8183526000602080850194508260005b85811015612591576001600160a01b0361257e836120f6565b1687529582019590820190600101612565565b509495945050505050565b6040815260006125b0604083018688612555565b82810360208401526125c3818587612555565b979650505050505050565b600181811c908216806125e257607f821691505b6020821081141561260357634e487b7160e01b600052602260045260246000fd5b50919050565b600060208083526000845481600182811c91508083168061262b57607f831692505b85831081141561264957634e487b7160e01b85526022600452602485fd5b8786018381526020018180156126665760018114612677576126a2565b60ff198616825287820196506126a2565b60008b81526020902060005b8681101561269c57815484820152908501908901612683565b83019750505b50949998505050505050505050565b600082516126c3818460208701611fef565b9190910192915050565b600080604083850312156126e057600080fd5b825180151581146126f057600080fd5b602084015190925067ffffffffffffffff8082111561270e57600080fd5b818501915085601f83011261272257600080fd5b81518181111561273457612734612382565b612747601f8201601f1916602001612398565b915080825286602082850101111561275e57600080fd5b61276f816020840160208601611fef565b5080925050509250929050565b606081016105208284805162ffffff16825260208082015163ffffffff9081169184019190915260409182015116910152565b600063ffffffff808316818114156127c9576127c96124df565b6001019392505050565b60006001600160601b038083168185168083038211156127f5576127f56124df565b01949350505050565b6001600160601b0383168152604060208201526000610763604083018461201f565b600081600019048311821515161561283a5761283a6124df565b500290565b634e487b7160e01b600052603160045260246000fdfea164736f6c6343000809000a",
  "linkReferences": {},
  "deployedLinkReferences": {}
}