{
  "_format": "hh-sol-artifact-1",
  "contractName": "UpkeepMock",
  "sourceName": "contracts/UpkeepMock.sol",
  "abi": [
    {
      "inputs": [],
      "name": "OnlySimulatedBackend",
      "type": "error"
    },
    {
      "anonymous": false,
      "inputs": [
        {
          "indexed": false,
          "internalType": "bytes",
          "name": "upkeepData",
          "type": "bytes"
        }
      ],
      "name": "UpkeepPerformedWith",
      "type": "event"
    },
    {
      "inputs": [],
      "name": "canCheck",
      "outputs": [
        {
          "internalType": "bool",
          "name": "",
          "type": "bool"
        }
      ],
      "stateMutability": "view",
      "type": "function"
    },
    {
      "inputs": [],
      "name": "canPerform",
      "outputs": [
        {
          "internalType": "bool",
          "name": "",
          "type": "bool"
        }
      ],
      "stateMutability": "view",
      "type": "function"
    },
    {
      "inputs": [],
      "name": "checkGasToBurn",
      "outputs": [
        {
          "internalType": "uint256",
          "name": "",
          "type": "uint256"
        }
      ],
      "stateMutability": "view",
      "type": "function"
    },
    {
      "inputs": [
        {
          "internalType": "bytes",
          "name": "data",
          "type": "bytes"
        }
      ],
      "name": "checkUpkeep",
      "outputs": [
        {
          "internalType": "bool",
          "name": "callable",
          "type": "bool"
        },
        {
          "internalType": "bytes",
          "name": "executedata",
          "type": "bytes"
        }
      ],
      "stateMutability": "nonpayable",
      "type": "function"
    },
    {
      "inputs": [],
      "name": "performGasToBurn",
      "outputs": [
        {
          "internalType": "uint256",
          "name": "",
          "type": "uint256"
        }
      ],
      "stateMutability": "view",
      "type": "function"
    },
    {
      "inputs": [
        {
          "internalType": "bytes",
          "name": "data",
          "type": "bytes"
        }
      ],
      "name": "performUpkeep",
      "outputs": [],
      "stateMutability": "nonpayable",
      "type": "function"
    },
    {
      "inputs": [
        {
          "internalType": "bool",
          "name": "value",
          "type": "bool"
        }
      ],
      "name": "setCanCheck",
      "outputs": [],
      "stateMutability": "nonpayable",
      "type": "function"
    },
    {
      "inputs": [
        {
          "internalType": "bool",
          "name": "value",
          "type": "bool"
        }
      ],
      "name": "setCanPerform",
      "outputs": [],
      "stateMutability": "nonpayable",
      "type": "function"
    },
    {
      "inputs": [
        {
          "internalType": "uint256",
          "name": "value",
          "type": "uint256"
        }
      ],
      "name": "setCheckGasToBurn",
      "outputs": [],
      "stateMutability": "nonpayable",
      "type": "function"
    },
    {
      "inputs": [
        {
          "internalType": "uint256",
          "name": "value",
          "type": "uint256"
        }
      ],
      "name": "setPerformGasToBurn",
      "outputs": [],
      "stateMutability": "nonpayable",
      "type": "function"
    }
  ],
  "bytecode": "0x608060405234801561001057600080fd5b5061055b806100206000396000f3fe608060405234801561001057600080fd5b50600436106100be5760003560e01c80636e04ff0d11610076578063b30566b41161005b578063b30566b414610181578063c0ecfc591461018a578063f8c826061461019c57600080fd5b80636e04ff0d1461014257806379bbf47c1461016457600080fd5b80632ff3617d116100a75780632ff3617d146100eb5780634585e33b1461010757806360f900801461011a57600080fd5b806313bda75b146100c35780632555d2cf146100d8575b600080fd5b6100d66100d136600461040b565b6101bd565b005b6100d66100e636600461040b565b610254565b6100f460015481565b6040519081526020015b60405180910390f35b6100d6610115366004610424565b6102e6565b6100d6610128366004610496565b600080549115156101000261ff0019909216919091179055565b610155610150366004610424565b6103a6565b6040516100fe939291906104e8565b6000546101719060ff1681565b60405190151581526020016100fe565b6100f460025481565b60005461017190610100900460ff1681565b6100d66101aa366004610496565b6000805460ff1916911515919091179055565b6103e88111806101cb575080155b6102425760405162461bcd60e51b815260206004820152603a60248201527f636865636b476173546f4275726e206d7573742062652030202864697361626c60448201527f656429206f722067726561746572207468616e2062756666657200000000000060648201526084015b60405180910390fd5b61024e6103e88261050d565b60015550565b6103e8811180610262575080155b6102d45760405162461bcd60e51b815260206004820152603c60248201527f706572666f726d476173546f4275726e206d757374206265203020286469736160448201527f626c656429206f722067726561746572207468616e20627566666572000000006064820152608401610239565b6102e06103e88261050d565b60025550565b60005a600054909150610100900460ff166103435760405162461bcd60e51b815260206004820152600e60248201527f43616e6e6f7420706572666f726d0000000000000000000000000000000000006044820152606401610239565b6000805461ff00191690557f20ce13cdd0a772811a0b719829d2b4cc837ad2a03e6b8330f9f41156c1560096838360405161037f929190610532565b60405180910390a15b6002545a610396908361050d565b10156103a157610388565b505050565b60003660006103b36103ea565b60005a6000805460ff19811690915590915060ff165b6001545a6103d7908461050d565b10156103e2576103c9565b969350505050565b32156104095760405163b60ac5db60e01b815260040160405180910390fd5b565b60006020828403121561041d57600080fd5b5035919050565b6000806020838503121561043757600080fd5b823567ffffffffffffffff8082111561044f57600080fd5b818501915085601f83011261046357600080fd5b81358181111561047257600080fd5b86602082850101111561048457600080fd5b60209290920196919550909350505050565b6000602082840312156104a857600080fd5b813580151581146104b857600080fd5b9392505050565b81835281816020850137506000828201602090810191909152601f909101601f19169091010190565b83151581526040602082015260006105046040830184866104bf565b95945050505050565b60008282101561052d57634e487b7160e01b600052601160045260246000fd5b500390565b6020815260006105466020830184866104bf565b94935050505056fea164736f6c6343000809000a",
  "linkReferences": {},
  "deployedLinkReferences": {}
}